:0A00000015C0FECFFDCFFCCFFBCFF3
:10000A00FACF3FC0F8CFF7CFF6CFF5CFF4CFF3CF83
:10001A00F2CFF1CFF0CFEFCFFE00010005002200B2
:10002A000000F894EE27ECBBF1E0FBBFEBBFE5BFA5
:10003A00E6BFF8E1F1BDE1BD8DE0A2E0BB27ED939B
:10004A008A95E9F780E092E0A0E6ED930197E9F757
:10005A00E4E2F0E085919591009761F0A591B59160
:10006A0005901590BF01F00105900D920197E1F7F7
:10007A00FB01F0CFEFE5EDBFE2E0EEBFC0EED0E06E
:10008A0011C0EA93EFB7EA9336D0550CE1E05E2A45
:10009A00EFEFE51511F4E4E05E2E58BAE991EFBFEF
:1000AA00E9911895E0E0EBBBEABBEFEFE8BBE7BBF1
:1000BA00E0E0E5BBE4BBE2BBE1BBE7B9E6B9E3BF1D
:1000CA00E2BFE1BFEFBDE5E0EEBD15D0E0E0E5BD82
:1000DA00E4BDEBBDEABDE9BDE8BDE5BFE6BFE0E8CA
:1000EA00E9BFE0E0EAB9E0E8E8B9E0E0EDB9789420
:1000FA00FFCF0000FECFE8EFEDBDEBEFECBD0895BA
:00000001FF
