:0C0000000C9439000C9400000C940000DB
:10000C000C9400000C9400000C9400000C94000064
:10001C000C9400000C9400000C9400000C94000054
:10002C000C9400000C9400000C9400000C94000044
:10003C000C9400000C9400000C9400000C94000034
:10004C000C9400000C9400000C9400000C94000024
:10005C000C9400000C9400000C94000000000200B2
:10006C00030068000000F894EE27EFBBF1E0F5BF49
:10007C00E5BFF8E1A895A4B7A77FA4BFF0936000F3
:10008C00E09360008DE0A2E0BB27ED938A95E9F741
:10009C0080E098E0A0E0B1E0ED930197E9F7EAE6A3
:1000AC00F0E085919591009761F0A591B59105903F
:1000BC001590BF01F00105900D920197E1F7FB013E
:1000CC00F0CFE0E0EEBBEFEFEDBFE8E0EEBFC0E05D
:1000DC00D3E00C94B700BA93AA9394D000E010E04C
:1000EC0021E030E040E050E0AE81BF81119711F487
:1000FC00F80122C0AE81BF81129711F4F9011CC026
:10010C002297E3E0E883E0E0E983E881F981E88580
:10011C00F985A881B981EA17FB0760F0F901E00FB6
:10012C00F11FAF0189019A01E881F9813196E883C9
:10013C00F983EDCFFA0122966CD02896089564D0FD
:10014C0000E010E020E030E0F801083EE3E01E079C
:10015C002CF42F5F3F4F0F5F1F4FF7CF5CD02496CF
:10016C000895E0E8E0936100E0E0E0936100E5B918
:10017C00E4B9E8B9E7B9EBB9EAB9E4BDE5BDE6BD68
:10018C00E7BDE8BDE0938000E0938100E09385003B
:10019C00E0938400E0938700E0938600E09389006D
:1001AC00E0938800E0938B00E0938A00E093B60024
:1001BC00E093B000E093B100E093B200E093B300A1
:1001CC00E093B400E0936900EDBBE0936800E0932A
:1001DC006E00E0936F00E0937000E093C100E0E8E4
:1001EC00E0BFE0E0E0937B00E0937F00E0937A00D7
:1001FC00ECBDE093BC00AAE0B0E06DDF3E2E4F2ECC
:10020C009EDFFFCF5A934A933A932A931A930A93F9
:10021C0008955D814C813B812A8119810881089563
:00000001FF
